{
  "contractName": "MessageStorage",
  "abi": [
    {
      "inputs": [
        {
          "internalType": "bytes32",
          "name": "message",
          "type": "bytes32"
        }
      ],
      "name": "setMessage",
      "outputs": [],
      "stateMutability": "nonpayable",
      "type": "function"
    },
    {
      "inputs": [],
      "name": "getMessage",
      "outputs": [
        {
          "internalType": "bytes32",
          "name": "",
          "type": "bytes32"
        }
      ],
      "stateMutability": "view",
      "type": "function"
    }
  ],
  "bytecode": "0x608060405234801561001057600080fd5b506101c9806100206000396000f3fe608060405234801561001057600080fd5b50600436106100365760003560e01c8063b32fead51461003b578063ce6d41de14610057575b600080fd5b6100556004803603810190610050919061013c565b610075565b005b61005f6100bb565b60405161006c9190610178565b60405180910390f35b806000803373ffffffffffffffffffffffffffffffffffffffff1673ffffffffffffffffffffffffffffffffffffffff1681526020019081526020016000208190555050565b60008060003373ffffffffffffffffffffffffffffffffffffffff1673ffffffffffffffffffffffffffffffffffffffff16815260200190815260200160002054905090565b600080fd5b6000819050919050565b61011981610106565b811461012457600080fd5b50565b60008135905061013681610110565b92915050565b60006020828403121561015257610151610101565b5b600061016084828501610127565b91505092915050565b61017281610106565b82525050565b600060208201905061018d6000830184610169565b9291505056fea2646970667358221220df695b76f55bc1f696fc62e989b28bf4bf90f4fb81e0bc7c0770e43ba1a0cabf64736f6c63430008130033",
  "immutableReferences": {},
  "source": "pragma solidity ^0.8.19;\r\n\r\ncontract MessageStorage {\r\n    mapping(address => bytes32) private messages;\r\n\r\n    function setMessage(bytes32 message) public {\r\n        messages[msg.sender] = message;\r\n    }\r\n\r\n    function getMessage() public view returns (bytes32) {\r\n        return messages[msg.sender];\r\n    }\r\n}\r\n",
  "sourcePath": "W:\\message\\contracts\\MessageStorage.sol",
  "compiler": {
    "name": "solc",
    "version": "0.8.19+commit.7dd6d404.Emscripten.clang"
  },
  "schemaVersion": "3.4.13",
  "updatedAt": "2023-04-14T10:38:10.220Z",
  "devdoc": {
    "kind": "dev",
    "methods": {},
    "version": 1
  },
  "userdoc": {
    "kind": "user",
    "methods": {},
    "version": 1
  }
}